:100000000C9434000C9451000C9451000C94510049
:100010000C9451000C9451000C9451000C9451001C
:100020000C9451000C9451000C9451000C948701D5
:100030000C9451000C9451000C9451000C945100FC
:100040000C9451000C9451000C9451000C945100EC
:100050000C9451000C9451000C9451000C945100DC
:100060000C9451000C94510011241FBECFEFD8E026
:10007000DEBFCDBF11E0A0E0B1E0EEEBF3E002C0E7
:1000800005900D92AC30B107D9F721E0ACE0B1E0BA
:1000900001C01D92AE30B207E1F70E94AE010C9490
:1000A000DD010C9400008AB188608AB98AE18A95E2
:1000B000F1F700C008958BB18B7F8BB98AB188604E
:1000C0008AB98AE18A95F1F700C08BB184608BB957
:1000D0008AE18A95F1F700C08AB1877F8AB98AE1FF
:1000E0008A95F1F700C0089590E020C02BB12B7FD6
:1000F0002BB9282F30E0092E02C0359527950A9498
:10010000E2F720FF04C02AB1277F2AB903C02AB131
:1001100028602AB92AE12A95F1F700C02BB12460A2
:100120002BB92AE12A95F1F700C09F5F9830F0F2D1
:100130008BB18B7F8BB98AB1877F8AB98AE18A9527
:10014000F1F700C08BB184608BB92AE12A95F1F7F1
:1001500000C008950F931F93CF93DF9300D000D07A
:10016000CDB7DEB7AC019C0136952795369527951E
:1001700036952795A5ECB0E20E94CE01FC01F295E0
:10018000E295EF70EF27FF70EF279F01ADECBCEC1D
:100190000E94CE0196958795969587959695879519
:1001A0009C01220F331F880F991F880F991F880FFA
:1001B000991F820F931F9F01281B390BF901EF5FD5
:1001C000FE4F808189839A0136952795369527952C
:1001D000ABE7B4E10E94CE01FC01F695E7959F01E3
:1001E000ADECBCEC0E94CE019695879596958795CF
:1001F000969587959C01220F331F880F991F880FB2
:10020000991F880F991F820F931F9F01281B390B7D
:10021000F901EF5FFE4F80818A839A010E94CE012F
:10022000FC01F695E795F695E795F695E7959F011C
:100230000E94CE0196958795969587959695879578
:100240009C01220F331F880F991F880F991F880F59
:10025000991F820F931F9F01281B390BD901AF5F94
:10026000BE4F8C918B83CF01880F991FEE0FFF1F1C
:10027000EE0FFF1FEE0FFF1FE80FF91F4E1B5F0B66
:10028000FA01EF5FFE4F80818C830E94530080E46F
:100290000E9474000E945B000E94530080EC0E9448
:1002A000740000E010E00BC0E1E0F0E0EC0FFD1F97
:1002B000E00FF11F80810E9474000F5F1F4F043018
:1002C000110594F30E945B000E9453008FE80E9486
:1002D00074000E945B000F900F900F900F90DF91C1
:1002E000CF911F910F91089510928000E1E8F0E006
:1002F00080818D60808388E09DE390938900809366
:100300008800EFE6F0E080818260808308951F928C
:100310000F920FB60F9211242F938F939F9380917A
:100320000C0190910D01019690930D0180930C01A9
:1003300080910C0190910D018031974220F0109234
:100340000D0110920C0181E0809300019F918F912B
:100350002F910F900FBE0F901F9018958BB1846056
:100360008BB98BB1877F8BB98AB184608AB98AB126
:10037000877F8AB98AE18A95F1F700C00E947401EB
:100380007894809100018823E1F31092000180911C
:100390000C0190910D010E94AA00F3CFA29FB00121
:1003A000B39FC001A39F700D811D1124911DB29FA9
:0E03B000700D811D1124911D0895F894FFCF4A
:0C03BE00013F065B4F666D7D077F6F00FE
:00000001FF
